{
  "contractName": "Todo",
  "abi": [
    {
      "constant": false,
      "inputs": [],
      "name": "deleteListByTime",
      "outputs": [],
      "payable": false,
      "stateMutability": "nonpayable",
      "type": "function"
    },
    {
      "constant": false,
      "inputs": [
        {
          "name": "newList",
          "type": "string"
        },
        {
          "name": "newDescription",
          "type": "string"
        },
        {
          "name": "timeStart",
          "type": "uint256"
        },
        {
          "name": "timeEnd",
          "type": "uint256"
        }
      ],
      "name": "changeList",
      "outputs": [],
      "payable": false,
      "stateMutability": "nonpayable",
      "type": "function"
    },
    {
      "constant": true,
      "inputs": [
        {
          "name": "newList",
          "type": "string"
        }
      ],
      "name": "getList",
      "outputs": [
        {
          "name": "task",
          "type": "string"
        },
        {
          "name": "description",
          "type": "string"
        },
        {
          "name": "timeStart",
          "type": "uint256"
        },
        {
          "name": "timeEnd",
          "type": "uint256"
        }
      ],
      "payable": false,
      "stateMutability": "view",
      "type": "function"
    },
    {
      "constant": false,
      "inputs": [
        {
          "name": "newList",
          "type": "string"
        }
      ],
      "name": "deleteListBySelect",
      "outputs": [],
      "payable": false,
      "stateMutability": "nonpayable",
      "type": "function"
    },
    {
      "constant": false,
      "inputs": [
        {
          "name": "newList",
          "type": "string"
        },
        {
          "name": "newDescription",
          "type": "string"
        },
        {
          "name": "start",
          "type": "uint256"
        },
        {
          "name": "end",
          "type": "uint256"
        }
      ],
      "name": "setList",
      "outputs": [],
      "payable": false,
      "stateMutability": "nonpayable",
      "type": "function"
    }
  ],
  "bytecode": "0x6060604052341561000f57600080fd5b610cc58061001e6000396000f30060606040526004361061006d576000357c0100000000000000000000000000000000000000000000000000000000900463ffffffff16806317a8f6bc146100725780631ef61e7a14610087578063487daf0214610139578063b52424d214610289578063f50f3791146102e6575b600080fd5b341561007d57600080fd5b610085610398565b005b341561009257600080fd5b610137600480803590602001908201803590602001908080601f0160208091040260200160405190810160405280939291908181526020018383808284378201915050505050509190803590602001908201803590602001908080601f01602080910402602001604051908101604052809392919081815260200183838082843782019150505050505091908035906020019091908035906020019091905050610434565b005b341561014457600080fd5b610194600480803590602001908201803590602001908080601f016020809104026020016040519081016040528093929190818152602001838380828437820191505050505050919050506105b6565b604051808060200180602001858152602001848152602001838103835287818151815260200191508051906020019080838360005b838110156101e45780820151818401526020810190506101c9565b50505050905090810190601f1680156102115780820380516001836020036101000a031916815260200191505b50838103825286818151815260200191508051906020019080838360005b8381101561024a57808201518184015260208101905061022f565b50505050905090810190601f1680156102775780820380516001836020036101000a031916815260200191505b50965050505050505060405180910390f35b341561029457600080fd5b6102e4600480803590602001908201803590602001908080601f016020809104026020016040519081016040528093929190818152602001838380828437820191505050505050919050506108b2565b005b34156102f157600080fd5b610396600480803590602001908201803590602001908080601f0160208091040260200160405190810160405280939291908181526020018383808284378201915050505050509190803590602001908201803590602001908080601f01602080910402602001604051908101604052809392919081815260200183838082843782019150505050505091908035906020019091908035906020019091905050610a20565b005b60008090505b600080549050811015610431576000818154811015156103ba57fe5b906000526020600020906004020160030154421115610424576000818154811015156103e257fe5b9060005260206000209060040201600080820160006104019190610ace565b6001820160006104119190610ace565b6002820160009055600382016000905550505b808060010191505061039e565b50565b60008090505b6000805490508110156105ae5760008181548110151561045657fe5b906000526020600020906004020160000160405180828054600181600116156101000203166002900480156104c25780601f106104a05761010080835404028352918201916104c2565b820191906000526020600020905b8154815290600101906020018083116104ae575b5050915050604051809103902060001916856040518082805190602001908083835b60208310151561050957805182526020820191506020810190506020830392506104e4565b6001836020036101000a03801982511681845116808217855250505050505090500191505060405180910390206000191614156105a15760008181548110151561054f57fe5b90600052602060002090600402016000808201600061056e9190610ace565b60018201600061057e9190610ace565b60028201600090556003820160009055505061059c85858585610a20565b6105af565b808060010191505061043a565b5b5050505050565b6105be610b16565b6105c6610b16565b60008060008090505b6000805490508110156108a9576000818154811015156105eb57fe5b906000526020600020906004020160000160405180828054600181600116156101000203166002900480156106575780601f10610635576101008083540402835291820191610657565b820191906000526020600020905b815481529060010190602001808311610643575b5050915050604051809103902060001916866040518082805190602001908083835b60208310151561069e5780518252602082019150602081019050602083039250610679565b6001836020036101000a038019825116818451168082178552505050505050905001915050604051809103902060001916141561089c576000818154811015156106e457fe5b906000526020600020906004020160000160008281548110151561070457fe5b906000526020600020906004020160010160008381548110151561072457fe5b90600052602060002090600402016002015460008481548110151561074557fe5b906000526020600020906004020160030154838054600181600116156101000203166002900480601f0160208091040260200160405190810160405280929190818152602001828054600181600116156101000203166002900480156107ec5780601f106107c1576101008083540402835291602001916107ec565b820191906000526020600020905b8154815290600101906020018083116107cf57829003601f168201915b50505050509350828054600181600116156101000203166002900480601f0160208091040260200160405190810160405280929190818152602001828054600181600116156101000203166002900480156108885780601f1061085d57610100808354040283529160200191610888565b820191906000526020600020905b81548152906001019060200180831161086b57829003601f168201915b5050505050925094509450945094506108aa565b80806001019150506105cf565b5b509193509193565b60008090505b600080549050811015610a1c576000818154811015156108d457fe5b906000526020600020906004020160000160405180828054600181600116156101000203166002900480156109405780601f1061091e576101008083540402835291820191610940565b820191906000526020600020905b81548152906001019060200180831161092c575b5050915050604051809103902060001916826040518082805190602001908083835b6020831015156109875780518252602082019150602081019050602083039250610962565b6001836020036101000a0380198251168184511680821785525050505050509050019150506040518091039020600019161415610a0f576000818154811015156109cd57fe5b9060005260206000209060040201600080820160006109ec9190610ace565b6001820160006109fc9190610ace565b6002820160009055600382016000905550505b80806001019150506108b8565b5050565b610a28610b2a565b60806040519081016040528086815260200185815260200184815260200183815250905060008054806001018281610a609190610b5f565b916000526020600020906004020160008390919091506000820151816000019080519060200190610a92929190610b91565b506020820151816001019080519060200190610aaf929190610b91565b5060408201518160020155606082015181600301555050505050505050565b50805460018160011615610100020316600290046000825580601f10610af45750610b13565b601f016020900490600052602060002090810190610b129190610c11565b5b50565b602060405190810160405280600081525090565b608060405190810160405280610b3e610c36565b8152602001610b4b610c36565b815260200160008152602001600081525090565b815481835581811511610b8c57600402816004028360005260206000209182019101610b8b9190610c4a565b5b505050565b828054600181600116156101000203166002900490600052602060002090601f016020900481019282601f10610bd257805160ff1916838001178555610c00565b82800160010185558215610c00579182015b82811115610bff578251825591602001919060010190610be4565b5b509050610c0d9190610c11565b5090565b610c3391905b80821115610c2f576000816000905550600101610c17565b5090565b90565b602060405190810160405280600081525090565b610c9691905b80821115610c925760008082016000610c699190610ace565b600182016000610c799190610ace565b6002820160009055600382016000905550600401610c50565b5090565b905600a165627a7a7230582013e8a230bcac127c3d5f9f04a985a7b30b41a3b0921ae918e7cf37ebe3f400b90029",
  "source": "pragma solidity ^0.4.17;\n\ncontract Todo {\n        \n        struct Todo {\n            string task;\n            string description;\n            uint256 timeStart;\n            uint256 timeEnd;\n        }\n        \n    Todo[] list;\n    \n    function setList(string newList, string newDescription, uint256 start, uint256 end) public {       // добавить задачу\n        Todo memory t = Todo(newList, newDescription, start, end);\n        list.push(t);\n    }\n    \n    function getList(string newList) public constant returns(string task, string description, uint256 timeStart, uint256 timeEnd) {   // получить список задач\n        for(uint i = 0; i < list.length; i++) {\n            if(keccak256(newList) == keccak256(list[i].task)) {\n                return (list[i].task, list[i].description, list[i].timeStart, list[i].timeEnd);\n            }\n        }\n    }\n    \n    function deleteListByTime() public {            // удаляем таски по времени, срок которых истек \n        for (uint i = 0; i < list.length; i++) {\n            if (now > list[i].timeEnd) {\n                delete list[i];\n            } \n        }\n    }\n    \n    function deleteListBySelect(string newList) public {           // удаляем по выбору\n        for(uint i = 0; i < list.length; i++) {\n            if(keccak256(newList) == keccak256(list[i].task)) {\n                delete list[i];\n            }    \n        }\n    }\n    \n    function changeList(string newList, string newDescription, uint256 timeStart, uint256 timeEnd) public {    // изменить запись\n        for(uint i = 0; i < list.length; i++) {\n            if(keccak256(newList) == keccak256(list[i].task)) {\n                delete list[i];\n                setList(newList, newDescription, timeStart, timeEnd);\n                return;\n            }\n           \n        }\n    }\n    \n   \n}",
  "sourcePath": "/Users/maksim/Desktop/myTodo/contracts/Todo.sol",
  "compiler": {
    "name": "solc",
    "version": "0.4.18+commit.9cf6e910.Emscripten.clang"
  },
  "schemaVersion": "1.0.1",
  "updatedAt": "2017-12-04T03:09:38.475Z"
}